{
  "contractName": "PennyWorth",
  "abi": [
    {
      "inputs": [
        {
          "internalType": "address payable",
          "name": "_artist",
          "type": "address"
        },
        {
          "internalType": "address",
          "name": "_artwork",
          "type": "address"
        },
        {
          "internalType": "uint256",
          "name": "_tokenId",
          "type": "uint256"
        },
        {
          "internalType": "uint256",
          "name": "_patronage",
          "type": "uint256"
        }
      ],
      "stateMutability": "nonpayable",
      "type": "constructor"
    },
    {
      "anonymous": false,
      "inputs": [
        {
          "indexed": true,
          "internalType": "address",
          "name": "owner",
          "type": "address"
        },
        {
          "indexed": true,
          "internalType": "uint256",
          "name": "price",
          "type": "uint256"
        }
      ],
      "name": "LogBuy",
      "type": "event"
    },
    {
      "anonymous": false,
      "inputs": [
        {
          "indexed": true,
          "internalType": "uint256",
          "name": "collected",
          "type": "uint256"
        }
      ],
      "name": "LogCollection",
      "type": "event"
    },
    {
      "anonymous": false,
      "inputs": [
        {
          "indexed": true,
          "internalType": "address",
          "name": "prevOwner",
          "type": "address"
        }
      ],
      "name": "LogForeclosure",
      "type": "event"
    },
    {
      "anonymous": false,
      "inputs": [
        {
          "indexed": true,
          "internalType": "uint256",
          "name": "newPrice",
          "type": "uint256"
        }
      ],
      "name": "LogPriceChange",
      "type": "event"
    },
    {
      "inputs": [],
      "name": "art",
      "outputs": [
        {
          "internalType": "contract IERC721",
          "name": "",
          "type": "address"
        }
      ],
      "stateMutability": "view",
      "type": "function"
    },
    {
      "inputs": [],
      "name": "artist",
      "outputs": [
        {
          "internalType": "address payable",
          "name": "",
          "type": "address"
        }
      ],
      "stateMutability": "view",
      "type": "function"
    },
    {
      "inputs": [],
      "name": "artistFund",
      "outputs": [
        {
          "internalType": "uint256",
          "name": "",
          "type": "uint256"
        }
      ],
      "stateMutability": "view",
      "type": "function"
    },
    {
      "inputs": [],
      "name": "before_first_sale",
      "outputs": [
        {
          "internalType": "bool",
          "name": "",
          "type": "bool"
        }
      ],
      "stateMutability": "view",
      "type": "function"
    },
    {
      "inputs": [],
      "name": "deposit",
      "outputs": [
        {
          "internalType": "uint256",
          "name": "",
          "type": "uint256"
        }
      ],
      "stateMutability": "view",
      "type": "function"
    },
    {
      "inputs": [],
      "name": "init",
      "outputs": [
        {
          "internalType": "bool",
          "name": "",
          "type": "bool"
        }
      ],
      "stateMutability": "view",
      "type": "function"
    },
    {
      "inputs": [],
      "name": "patronageNumerator",
      "outputs": [
        {
          "internalType": "uint256",
          "name": "",
          "type": "uint256"
        }
      ],
      "stateMutability": "view",
      "type": "function"
    },
    {
      "inputs": [],
      "name": "price",
      "outputs": [
        {
          "internalType": "uint256",
          "name": "",
          "type": "uint256"
        }
      ],
      "stateMutability": "view",
      "type": "function"
    },
    {
      "inputs": [
        {
          "internalType": "address",
          "name": "",
          "type": "address"
        }
      ],
      "name": "pullFunds",
      "outputs": [
        {
          "internalType": "uint256",
          "name": "",
          "type": "uint256"
        }
      ],
      "stateMutability": "view",
      "type": "function"
    },
    {
      "inputs": [],
      "name": "timeAcquired",
      "outputs": [
        {
          "internalType": "uint256",
          "name": "",
          "type": "uint256"
        }
      ],
      "stateMutability": "view",
      "type": "function"
    },
    {
      "inputs": [],
      "name": "timeLastCollected",
      "outputs": [
        {
          "internalType": "uint256",
          "name": "",
          "type": "uint256"
        }
      ],
      "stateMutability": "view",
      "type": "function"
    },
    {
      "inputs": [],
      "name": "tokenID",
      "outputs": [
        {
          "internalType": "uint256",
          "name": "",
          "type": "uint256"
        }
      ],
      "stateMutability": "view",
      "type": "function"
    },
    {
      "inputs": [],
      "name": "totalCollected",
      "outputs": [
        {
          "internalType": "uint256",
          "name": "",
          "type": "uint256"
        }
      ],
      "stateMutability": "view",
      "type": "function"
    },
    {
      "inputs": [],
      "name": "patronageOwed",
      "outputs": [
        {
          "internalType": "uint256",
          "name": "patronageDue",
          "type": "uint256"
        }
      ],
      "stateMutability": "view",
      "type": "function"
    },
    {
      "inputs": [
        {
          "internalType": "uint256",
          "name": "_time",
          "type": "uint256"
        }
      ],
      "name": "patronageOwedRange",
      "outputs": [
        {
          "internalType": "uint256",
          "name": "patronageDue",
          "type": "uint256"
        }
      ],
      "stateMutability": "view",
      "type": "function"
    },
    {
      "inputs": [],
      "name": "seconds_year",
      "outputs": [
        {
          "internalType": "uint256",
          "name": "seconds_per_year",
          "type": "uint256"
        }
      ],
      "stateMutability": "view",
      "type": "function"
    },
    {
      "inputs": [],
      "name": "getPatronage",
      "outputs": [
        {
          "internalType": "uint256",
          "name": "numerator",
          "type": "uint256"
        }
      ],
      "stateMutability": "view",
      "type": "function"
    },
    {
      "inputs": [],
      "name": "currentCollected",
      "outputs": [
        {
          "internalType": "uint256",
          "name": "patronageDue",
          "type": "uint256"
        }
      ],
      "stateMutability": "view",
      "type": "function"
    },
    {
      "inputs": [],
      "name": "before_sale_state",
      "outputs": [
        {
          "internalType": "bool",
          "name": "state",
          "type": "bool"
        }
      ],
      "stateMutability": "view",
      "type": "function"
    },
    {
      "inputs": [],
      "name": "getPatronAdress",
      "outputs": [
        {
          "internalType": "address",
          "name": "patron",
          "type": "address"
        }
      ],
      "stateMutability": "view",
      "type": "function"
    },
    {
      "inputs": [],
      "name": "patronageOwedWithTimestamp",
      "outputs": [
        {
          "internalType": "uint256",
          "name": "patronageDue",
          "type": "uint256"
        },
        {
          "internalType": "uint256",
          "name": "timestamp",
          "type": "uint256"
        }
      ],
      "stateMutability": "view",
      "type": "function"
    },
    {
      "inputs": [],
      "name": "foreclosed",
      "outputs": [
        {
          "internalType": "bool",
          "name": "",
          "type": "bool"
        }
      ],
      "stateMutability": "view",
      "type": "function"
    },
    {
      "inputs": [],
      "name": "depositAbleToWithdraw",
      "outputs": [
        {
          "internalType": "uint256",
          "name": "",
          "type": "uint256"
        }
      ],
      "stateMutability": "view",
      "type": "function"
    },
    {
      "inputs": [],
      "name": "foreclosureTime",
      "outputs": [
        {
          "internalType": "uint256",
          "name": "",
          "type": "uint256"
        }
      ],
      "stateMutability": "view",
      "type": "function"
    },
    {
      "inputs": [],
      "name": "_collectPatronage",
      "outputs": [],
      "stateMutability": "nonpayable",
      "type": "function"
    },
    {
      "inputs": [
        {
          "internalType": "uint256",
          "name": "_newPrice",
          "type": "uint256"
        },
        {
          "internalType": "uint256",
          "name": "_currentPrice",
          "type": "uint256"
        }
      ],
      "name": "buy",
      "outputs": [],
      "stateMutability": "payable",
      "type": "function"
    },
    {
      "inputs": [],
      "name": "depositWei",
      "outputs": [],
      "stateMutability": "payable",
      "type": "function"
    },
    {
      "inputs": [
        {
          "internalType": "uint256",
          "name": "_newPrice",
          "type": "uint256"
        }
      ],
      "name": "changePrice",
      "outputs": [],
      "stateMutability": "nonpayable",
      "type": "function"
    },
    {
      "inputs": [
        {
          "internalType": "uint256",
          "name": "_wei",
          "type": "uint256"
        }
      ],
      "name": "withdrawDeposit",
      "outputs": [],
      "stateMutability": "nonpayable",
      "type": "function"
    },
    {
      "inputs": [],
      "name": "exit",
      "outputs": [],
      "stateMutability": "nonpayable",
      "type": "function"
    },
    {
      "inputs": [],
      "name": "withdrawArtistFunds",
      "outputs": [],
      "stateMutability": "nonpayable",
      "type": "function"
    },
    {
      "inputs": [],
      "name": "withdrawPullFunds",
      "outputs": [],
      "stateMutability": "nonpayable",
      "type": "function"
    }
  ],
  "bytecode": "0x60806040523480156200001157600080fd5b50604051620027f8380380620027f8833981810160405260808110156200003757600080fd5b81019080805190602001909291908051906020019092919080519060200190929190805190602001909291905050506001600b60006101000a81548160ff02191690831515021790555060001515600b60019054906101000a900460ff161515146200010b576040517f08c379a000000000000000000000000000000000000000000000000000000000815260040180806020018281038252601f8152602001807f50656e6e79576f72746820616c726561647920696e697469616c697a65642e0081525060200191505060405180910390fd5b8160018190555080600a8190555082600260006101000a81548173ffffffffffffffffffffffffffffffffffffffff021916908373ffffffffffffffffffffffffffffffffffffffff160217905550600260009054906101000a900473ffffffffffffffffffffffffffffffffffffffff1673ffffffffffffffffffffffffffffffffffffffff1663ba0bba406040518163ffffffff1660e01b8152600401600060405180830381600087803b158015620001c557600080fd5b505af1158015620001da573d6000803e3d6000fd5b5050505083600660006101000a81548173ffffffffffffffffffffffffffffffffffffffff021916908373ffffffffffffffffffffffffffffffffffffffff1602179055506200022f6200025460201b60201c565b6001600b60016101000a81548160ff02191690831515021790555050505050620005a7565b60011515600b60009054906101000a900460ff1615151415620003a8576000600260009054906101000a900473ffffffffffffffffffffffffffffffffffffffff1673ffffffffffffffffffffffffffffffffffffffff16636352211e6001546040518263ffffffff1660e01b81526004018082815260200191505060206040518083038186803b158015620002e957600080fd5b505afa158015620002fe573d6000803e3d6000fd5b505050506040513d60208110156200031557600080fd5b810190808051906020019092919050505090506200035e81600660009054906101000a900473ffffffffffffffffffffffffffffffffffffffff166000620004c760201b60201c565b8073ffffffffffffffffffffffffffffffffffffffff167f6d6bbefef62d4cb6d0e3a4dd306a71d3632319b1e03659513df86b247dd657fe60405160405180910390a250620004c5565b60006005541415620004c4576000600260009054906101000a900473ffffffffffffffffffffffffffffffffffffffff1673ffffffffffffffffffffffffffffffffffffffff16636352211e6001546040518263ffffffff1660e01b81526004018082815260200191505060206040518083038186803b1580156200042c57600080fd5b505afa15801562000441573d6000803e3d6000fd5b505050506040513d60208110156200045857600080fd5b810190808051906020019092919050505090506200047f81306000620004c760201b60201c565b8073ffffffffffffffffffffffffffffffffffffffff167f6d6bbefef62d4cb6d0e3a4dd306a71d3632319b1e03659513df86b247dd657fe60405160405180910390a2505b5b565b600260009054906101000a900473ffffffffffffffffffffffffffffffffffffffff1673ffffffffffffffffffffffffffffffffffffffff166323b872dd84846001546040518463ffffffff1660e01b8152600401808473ffffffffffffffffffffffffffffffffffffffff1681526020018373ffffffffffffffffffffffffffffffffffffffff1681526020018281526020019350505050600060405180830381600087803b1580156200057b57600080fd5b505af115801562000590573d6000803e3d6000fd5b505050508060008190555042600981905550505050565b61224180620005b76000396000f3fe6080604052600436106101e35760003560e01c806387ae818111610102578063a5c42ef111610095578063e1c7392a11610064578063e1c7392a14610719578063e29eb83614610746578063e9fad8ee14610771578063f07af5f714610788576101e3565b8063a5c42ef114610660578063a97d70b11461068b578063d0e30db0146106b6578063d6febde8146106e1576101e3565b80639443c2e3116100d15780639443c2e3146105a2578063964a54fd146105cd578063a035b1fe146105fa578063a2b40d1914610625576101e3565b806387ae8181146104d95780638bb66d8a146105045780638d4237b914610536578063929417db14610577576101e3565b80634bd8aeac1161017a5780635e67d521116101495780635e67d5211461041d5780635f537f4d146104345780636c7f17fb1461045f578063879d5aad146104ae576101e3565b80634bd8aeac146103355780634eae6bb21461036057806355c3bf101461038d5780635d5a92fb146103b8576101e3565b806332567803116101b6578063325678031461027557806333289a46146102a25780633989e231146102dd57806343bc1612146102f4576101e3565b80630ee591ba146101e857806311f1861f146101ff57806315488b881461022a578063301bd28e14610234575b600080fd5b3480156101f457600080fd5b506101fd6107b3565b005b34801561020b57600080fd5b506102146108f1565b6040518082815260200191505060405180910390f35b6102326108fd565b005b34801561024057600080fd5b50610249610a72565b604051808273ffffffffffffffffffffffffffffffffffffffff16815260200191505060405180910390f35b34801561028157600080fd5b5061028a610a98565b60405180821515815260200191505060405180910390f35b3480156102ae57600080fd5b506102db600480360360208110156102c557600080fd5b8101908080359060200190929190505050610ac1565b005b3480156102e957600080fd5b506102f2610c25565b005b34801561030057600080fd5b50610309610e5a565b604051808273ffffffffffffffffffffffffffffffffffffffff16815260200191505060405180910390f35b34801561034157600080fd5b5061034a610e80565b6040518082815260200191505060405180910390f35b34801561036c57600080fd5b50610375610e86565b60405180821515815260200191505060405180910390f35b34801561039957600080fd5b506103a2610e99565b6040518082815260200191505060405180910390f35b3480156103c457600080fd5b50610407600480360360208110156103db57600080fd5b81019080803573ffffffffffffffffffffffffffffffffffffffff169060200190929190505050610e9f565b6040518082815260200191505060405180910390f35b34801561042957600080fd5b50610432610eb7565b005b34801561044057600080fd5b5061044961103f565b6040518082815260200191505060405180910390f35b34801561046b57600080fd5b506104986004803603602081101561048257600080fd5b8101908080359060200190929190505050611045565b6040518082815260200191505060405180910390f35b3480156104ba57600080fd5b506104c36110a0565b6040518082815260200191505060405180910390f35b3480156104e557600080fd5b506104ee611185565b6040518082815260200191505060405180910390f35b34801561051057600080fd5b5061051961118f565b604051808381526020018281526020019250505060405180910390f35b34801561054257600080fd5b5061054b6111a3565b604051808273ffffffffffffffffffffffffffffffffffffffff16815260200191505060405180910390f35b34801561058357600080fd5b5061058c61125a565b6040518082815260200191505060405180910390f35b3480156105ae57600080fd5b506105b76112c7565b6040518082815260200191505060405180910390f35b3480156105d957600080fd5b506105e2611303565b60405180821515815260200191505060405180910390f35b34801561060657600080fd5b5061060f61131a565b6040518082815260200191505060405180910390f35b34801561063157600080fd5b5061065e6004803603602081101561064857600080fd5b8101908080359060200190929190505050611320565b005b34801561066c57600080fd5b50610675611527565b6040518082815260200191505060405180910390f35b34801561069757600080fd5b506106a061152d565b6040518082815260200191505060405180910390f35b3480156106c257600080fd5b506106cb611569565b6040518082815260200191505060405180910390f35b610717600480360360408110156106f757600080fd5b81019080803590602001909291908035906020019092919050505061156f565b005b34801561072557600080fd5b5061072e611921565b60405180821515815260200191505060405180910390f35b34801561075257600080fd5b5061075b611934565b6040518082815260200191505060405180910390f35b34801561077d57600080fd5b5061078661193a565b005b34801561079457600080fd5b5061079d611a9f565b6040518082815260200191505060405180910390f35b600660009054906101000a900473ffffffffffffffffffffffffffffffffffffffff1673ffffffffffffffffffffffffffffffffffffffff163373ffffffffffffffffffffffffffffffffffffffff1614610876576040517f08c379a000000000000000000000000000000000000000000000000000000000815260040180806020018281038252600a8152602001807f4e6f74206172746973740000000000000000000000000000000000000000000081525060200191505060405180910390fd5b600060075490506000600781905550600660009054906101000a900473ffffffffffffffffffffffffffffffffffffffff1673ffffffffffffffffffffffffffffffffffffffff166108fc829081150290604051600060405180830381858888f193505050501580156108ed573d6000803e3d6000fd5b5050565b60006301e13380905090565b610905610c25565b600260009054906101000a900473ffffffffffffffffffffffffffffffffffffffff1673ffffffffffffffffffffffffffffffffffffffff16636352211e6001546040518263ffffffff1660e01b81526004018082815260200191505060206040518083038186803b15801561097a57600080fd5b505afa15801561098e573d6000803e3d6000fd5b505050506040513d60208110156109a457600080fd5b810190808051906020019092919050505073ffffffffffffffffffffffffffffffffffffffff163373ffffffffffffffffffffffffffffffffffffffff1614610a55576040517f08c379a000000000000000000000000000000000000000000000000000000000815260040180806020018281038252600a8152602001807f4e6f7420706174726f6e0000000000000000000000000000000000000000000081525060200191505060405180910390fd5b610a6a34600554611aa590919063ffffffff16565b600581905550565b600260009054906101000a900473ffffffffffffffffffffffffffffffffffffffff1681565b600080610aa361125a565b90506005548110610ab8576001915050610abe565b60009150505b90565b610ac9610c25565b600260009054906101000a900473ffffffffffffffffffffffffffffffffffffffff1673ffffffffffffffffffffffffffffffffffffffff16636352211e6001546040518263ffffffff1660e01b81526004018082815260200191505060206040518083038186803b158015610b3e57600080fd5b505afa158015610b52573d6000803e3d6000fd5b505050506040513d6020811015610b6857600080fd5b810190808051906020019092919050505073ffffffffffffffffffffffffffffffffffffffff163373ffffffffffffffffffffffffffffffffffffffff1614610c19576040517f08c379a000000000000000000000000000000000000000000000000000000000815260040180806020018281038252600a8152602001807f4e6f7420706174726f6e0000000000000000000000000000000000000000000081525060200191505060405180910390fd5b610c2281611b2d565b50565b600660009054906101000a900473ffffffffffffffffffffffffffffffffffffffff1673ffffffffffffffffffffffffffffffffffffffff16600260009054906101000a900473ffffffffffffffffffffffffffffffffffffffff1673ffffffffffffffffffffffffffffffffffffffff16636352211e6001546040518263ffffffff1660e01b81526004018082815260200191505060206040518083038186803b158015610cd357600080fd5b505afa158015610ce7573d6000803e3d6000fd5b505050506040513d6020811015610cfd57600080fd5b810190808051906020019092919050505073ffffffffffffffffffffffffffffffffffffffff1614158015610d45575060001515600b60009054906101000a900460ff161515145b15610e58576000805414610e57576000610d5d61125a565b90506005548110610dc757610db7610da682610d98600554610d8a60045442611c1290919063ffffffff16565b611c5c90919063ffffffff16565b611ce290919063ffffffff16565b600454611aa590919063ffffffff16565b6004819055506005549050610dcf565b426004819055505b610de481600554611c1290919063ffffffff16565b600581905550610dff81600354611aa590919063ffffffff16565b600381905550610e1a81600754611aa590919063ffffffff16565b600781905550807f54acb82a9e70d7c289b149758d23167c915428ae854a7aa4abe5bf2f4ef29f3660405160405180910390a2610e55611d2c565b505b5b565b600660009054906101000a900473ffffffffffffffffffffffffffffffffffffffff1681565b60075481565b600b60009054906101000a900460ff1681565b60095481565b60086020528060005260406000206000915090505481565b6000600860003373ffffffffffffffffffffffffffffffffffffffff1673ffffffffffffffffffffffffffffffffffffffff1681526020019081526020016000205411610f6c576040517f08c379a00000000000000000000000000000000000000000000000000000000081526004018080602001828103825260188152602001807f4e6f2070756c6c2066756e647320617661696c61626c652e000000000000000081525060200191505060405180910390fd5b6000600860003373ffffffffffffffffffffffffffffffffffffffff1673ffffffffffffffffffffffffffffffffffffffff1681526020019081526020016000205490506000600860003373ffffffffffffffffffffffffffffffffffffffff1673ffffffffffffffffffffffffffffffffffffffff168152602001908152602001600020819055503373ffffffffffffffffffffffffffffffffffffffff166108fc829081150290604051600060405180830381858888f1935050505015801561103b573d6000803e3d6000fd5b5050565b600a5481565b6000611099606461108b6301e1338061107d600a5461106f88600054611c5c90919063ffffffff16565b611c5c90919063ffffffff16565b611ce290919063ffffffff16565b611ce290919063ffffffff16565b9050919050565b6000806110d06301e133806110c2600a54600054611c5c90919063ffffffff16565b611ce290919063ffffffff16565b905060006110dc6112c7565b9050600081111561110c57611101826110f36112c7565b611ce290919063ffffffff16565b420192505050611182565b600082111561117a57600061111f61125a565b905061117061115f8261115160055461114360045442611c1290919063ffffffff16565b611c5c90919063ffffffff16565b611ce290919063ffffffff16565b600454611aa590919063ffffffff16565b9350505050611182565b600454925050505b90565b6000600a54905090565b60008061119a61125a565b42915091509091565b6000600260009054906101000a900473ffffffffffffffffffffffffffffffffffffffff1673ffffffffffffffffffffffffffffffffffffffff16636352211e6001546040518263ffffffff1660e01b81526004018082815260200191505060206040518083038186803b15801561121a57600080fd5b505afa15801561122e573d6000803e3d6000fd5b505050506040513d602081101561124457600080fd5b8101908080519060200190929190505050905090565b60006112c260646112b46301e133806112a6600a5461129861128760045442611c1290919063ffffffff16565b600054611c5c90919063ffffffff16565b611c5c90919063ffffffff16565b611ce290919063ffffffff16565b611ce290919063ffffffff16565b905090565b6000806112d261125a565b905060055481106112e7576000915050611300565b6112fc81600554611c1290919063ffffffff16565b9150505b90565b6000600b60009054906101000a900460ff16905090565b60005481565b611328610c25565b600260009054906101000a900473ffffffffffffffffffffffffffffffffffffffff1673ffffffffffffffffffffffffffffffffffffffff16636352211e6001546040518263ffffffff1660e01b81526004018082815260200191505060206040518083038186803b15801561139d57600080fd5b505afa1580156113b1573d6000803e3d6000fd5b505050506040513d60208110156113c757600080fd5b810190808051906020019092919050505073ffffffffffffffffffffffffffffffffffffffff163373ffffffffffffffffffffffffffffffffffffffff1614611478576040517f08c379a000000000000000000000000000000000000000000000000000000000815260040180806020018281038252600a8152602001807f4e6f7420706174726f6e0000000000000000000000000000000000000000000081525060200191505060405180910390fd5b600081116114ee576040517f08c379a000000000000000000000000000000000000000000000000000000000815260040180806020018281038252600d8152602001807f5072696365206973207a65726f0000000000000000000000000000000000000081525060200191505060405180910390fd5b806000819055506000547f854d6511a28585103049c7770618450f7c9aeb580c69db2913d63869663f475160405160405180910390a250565b60015481565b600060095460045411156115615761155a611555600954600454611c1290919063ffffffff16565b611045565b9050611566565b600090505b90565b60055481565b611577610c25565b80600054146115ee576040517f08c379a00000000000000000000000000000000000000000000000000000000081526004018080602001828103825260178152602001807f43757272656e7420507269636520696e636f727265637400000000000000000081525060200191505060405180910390fd5b60008211611664576040517f08c379a000000000000000000000000000000000000000000000000000000000815260040180806020018281038252600d8152602001807f5072696365206973207a65726f0000000000000000000000000000000000000081525060200191505060405180910390fd5b60005434116116db576040517f08c379a000000000000000000000000000000000000000000000000000000000815260040180806020018281038252600a8152602001807f4e6f7420656e6f7567680000000000000000000000000000000000000000000081525060200191505060405180910390fd5b6000600260009054906101000a900473ffffffffffffffffffffffffffffffffffffffff1673ffffffffffffffffffffffffffffffffffffffff16636352211e6001546040518263ffffffff1660e01b81526004018082815260200191505060206040518083038186803b15801561175257600080fd5b505afa158015611766573d6000803e3d6000fd5b505050506040513d602081101561177c57600080fd5b8101908080519060200190929190505050905060006117a8600554600054611aa590919063ffffffff16565b9050600081111561188f57600082905060008173ffffffffffffffffffffffffffffffffffffffff166108fc849081150290604051600060405180830381858888f1935050505090508061188c5761184883600860008773ffffffffffffffffffffffffffffffffffffffff1673ffffffffffffffffffffffffffffffffffffffff16815260200190815260200160002054611aa590919063ffffffff16565b600860008673ffffffffffffffffffffffffffffffffffffffff1673ffffffffffffffffffffffffffffffffffffffff168152602001908152602001600020819055505b50505b6000600b60006101000a81548160ff021916908315150217905550426004819055506118c660005434611c1290919063ffffffff16565b6005819055506118d7823386611f86565b833373ffffffffffffffffffffffffffffffffffffffff167f4f79409f494e81c38036d80aa8a6507c2cb08d90bfb2fead5519447646b3497e60405160405180910390a350505050565b600b60019054906101000a900460ff1681565b60035481565b611942610c25565b600260009054906101000a900473ffffffffffffffffffffffffffffffffffffffff1673ffffffffffffffffffffffffffffffffffffffff16636352211e6001546040518263ffffffff1660e01b81526004018082815260200191505060206040518083038186803b1580156119b757600080fd5b505afa1580156119cb573d6000803e3d6000fd5b505050506040513d60208110156119e157600080fd5b810190808051906020019092919050505073ffffffffffffffffffffffffffffffffffffffff163373ffffffffffffffffffffffffffffffffffffffff1614611a92576040517f08c379a000000000000000000000000000000000000000000000000000000000815260040180806020018281038252600a8152602001807f4e6f7420706174726f6e0000000000000000000000000000000000000000000081525060200191505060405180910390fd5b611a9d600554611b2d565b565b60045481565b600080828401905083811015611b23576040517f08c379a000000000000000000000000000000000000000000000000000000000815260040180806020018281038252601b8152602001807f536166654d6174683a206164646974696f6e206f766572666c6f77000000000081525060200191505060405180910390fd5b8091505092915050565b806005541015611ba5576040517f08c379a00000000000000000000000000000000000000000000000000000000081526004018080602001828103825260148152602001807f5769746864726177696e6720746f6f206d75636800000000000000000000000081525060200191505060405180910390fd5b611bba81600554611c1290919063ffffffff16565b6005819055503373ffffffffffffffffffffffffffffffffffffffff166108fc829081150290604051600060405180830381858888f19350505050158015611c06573d6000803e3d6000fd5b50611c0f611d2c565b50565b6000611c5483836040518060400160405280601e81526020017f536166654d6174683a207375627472616374696f6e206f766572666c6f770000815250612064565b905092915050565b600080831415611c6f5760009050611cdc565b6000828402905082848281611c8057fe5b0414611cd7576040517f08c379a00000000000000000000000000000000000000000000000000000000081526004018080602001828103825260218152602001806121eb6021913960400191505060405180910390fd5b809150505b92915050565b6000611d2483836040518060400160405280601a81526020017f536166654d6174683a206469766973696f6e206279207a65726f000000000000815250612124565b905092915050565b60011515600b60009054906101000a900460ff1615151415611e73576000600260009054906101000a900473ffffffffffffffffffffffffffffffffffffffff1673ffffffffffffffffffffffffffffffffffffffff16636352211e6001546040518263ffffffff1660e01b81526004018082815260200191505060206040518083038186803b158015611dbf57600080fd5b505afa158015611dd3573d6000803e3d6000fd5b505050506040513d6020811015611de957600080fd5b81019080805190602001909291905050509050611e2a81600660009054906101000a900473ffffffffffffffffffffffffffffffffffffffff166000611f86565b8073ffffffffffffffffffffffffffffffffffffffff167f6d6bbefef62d4cb6d0e3a4dd306a71d3632319b1e03659513df86b247dd657fe60405160405180910390a250611f84565b60006005541415611f83576000600260009054906101000a900473ffffffffffffffffffffffffffffffffffffffff1673ffffffffffffffffffffffffffffffffffffffff16636352211e6001546040518263ffffffff1660e01b81526004018082815260200191505060206040518083038186803b158015611ef557600080fd5b505afa158015611f09573d6000803e3d6000fd5b505050506040513d6020811015611f1f57600080fd5b81019080805190602001909291905050509050611f3e81306000611f86565b8073ffffffffffffffffffffffffffffffffffffffff167f6d6bbefef62d4cb6d0e3a4dd306a71d3632319b1e03659513df86b247dd657fe60405160405180910390a2505b5b565b600260009054906101000a900473ffffffffffffffffffffffffffffffffffffffff1673ffffffffffffffffffffffffffffffffffffffff166323b872dd84846001546040518463ffffffff1660e01b8152600401808473ffffffffffffffffffffffffffffffffffffffff1681526020018373ffffffffffffffffffffffffffffffffffffffff1681526020018281526020019350505050600060405180830381600087803b15801561203957600080fd5b505af115801561204d573d6000803e3d6000fd5b505050508060008190555042600981905550505050565b6000838311158290612111576040517f08c379a00000000000000000000000000000000000000000000000000000000081526004018080602001828103825283818151815260200191508051906020019080838360005b838110156120d65780820151818401526020810190506120bb565b50505050905090810190601f1680156121035780820380516001836020036101000a031916815260200191505b509250505060405180910390fd5b5060008385039050809150509392505050565b600080831182906121d0576040517f08c379a00000000000000000000000000000000000000000000000000000000081526004018080602001828103825283818151815260200191508051906020019080838360005b8381101561219557808201518184015260208101905061217a565b50505050905090810190601f1680156121c25780820380516001836020036101000a031916815260200191505b509250505060405180910390fd5b5060008385816121dc57fe5b04905080915050939250505056fe536166654d6174683a206d756c7469706c69636174696f6e206f766572666c6f77a26469706673582212204c4ee1a43606936479be879414bd9aef12c4b1aa71de3fddb71d12891cc9b34d64736f6c634300060c0033",
  "immutableReferences": {},
  "source": "pragma solidity ^0.6.0;\r\n// Code inspired by https://thisartworkisalwaysonsale.com/\r\n\r\nimport \"./interfaces/IERC721.sol\";\r\nimport \"./utils/SafeMath.sol\";\r\n\r\ncontract PennyWorth{\r\n    using SafeMath for uint256;\r\n\r\n    uint256 public price; //in Wei\r\n    uint256 public tokenID; // ID of the Token that is generated via the setup() function\r\n    IERC721 public art; // ERC721 NFT.\r\n\r\n    uint256 public totalCollected; // all patronage ever collected\r\n\r\n    /* In the event that a foreclosure happens AFTER it should have been foreclosed already,\r\n    this variable is backdated to when it should've occurred. Thus: timeHeld is accurate to actual deposit. */\r\n    uint256 public timeLastCollected; // timestamp when last collection occurred\r\n    uint256 public deposit; // funds for paying patronage\r\n    address payable public artist; // beneficiary\r\n    uint256 public artistFund; // what artist has earned and can withdraw\r\n\r\n    /*\r\n    If for whatever reason the transfer fails when being sold,\r\n    it's added to a pullFunds such that previous owner can withdraw it.\r\n    */\r\n    mapping (address => uint256) public pullFunds; // storage area in case a sale can't send the funds towards previous owner.\r\n\r\n    uint256 public timeAcquired; // when it is newly bought/sold\r\n\r\n    // percentage patronage rate. eg 5% or 100% \r\n    uint256 public patronageNumerator; \r\n\r\n    // Logs if it has been sold once \r\n    bool public before_first_sale;\r\n\r\n    // init that logs if the contract has run before\r\n    bool public init;\r\n\r\n\r\n    /* \r\n    _artist ->  Adress of Artist \r\n    _artwork -> Adress of Art \r\n    _tokenId -> ID of the token, must be identical with the TokenID of the Artwork\r\n    _patronage -> patronage or dividend payed towards the artist (per annum) in % \r\n    */\r\n\r\n    constructor(address payable _artist, address _artwork, uint256 _tokenId, uint256 _patronage) public {\r\n        // Artwork has not been bought / sold\r\n        before_first_sale = true;\r\n        // this is kept here in case you want to use this in an upgradeable contract\r\n        require(init == false, \"PennyWorth already initialized.\");\r\n        // set Token-ID, has to be same token-ID that is used in the erc contract \r\n        tokenID = _tokenId;\r\n        // variable % to be given to the beneficiary / artist\r\n        patronageNumerator = _patronage;\r\n        // get deployed artwork Contract \r\n        art = IERC721(_artwork);\r\n        // Initialising ERC 721 Contract \r\n        art.setup();\r\n        // set-up artist\r\n        artist = _artist;\r\n\r\n        //sets up initial parameters for foreclosure\r\n        _forecloseIfNecessary();\r\n\r\n        init = true;\r\n    }\r\n\r\n\r\n    event LogBuy(address indexed owner, uint256 indexed price);\r\n    event LogPriceChange(uint256 indexed newPrice);\r\n    event LogForeclosure(address indexed prevOwner);\r\n    event LogCollection(uint256 indexed collected);\r\n\r\n    // modifier to make sure the method is only used by the patron\r\n    modifier onlyPatron() {\r\n        require(msg.sender == art.ownerOf(tokenID), \"Not patron\");\r\n        _;\r\n    }\r\n\r\n    // modifier that runs the patronage collection\r\n    modifier collectPatronage() {\r\n       _collectPatronage(); \r\n       _;\r\n    }\r\n\r\n    /* public view functions */\r\n    /* used internally in external actions */\r\n\r\n    // returns how much is owed from last collection to now.\r\n    // (price * zeit_diff * prozentsatz / 365 Tage)*100\r\n    function patronageOwed() public view returns (uint256 patronageDue) {\r\n        return (price.mul(now.sub(timeLastCollected)).mul(patronageNumerator).div(365 days)).div(100);\r\n    }\r\n\r\n    // returns how much time will it take until that amount of patronage is due -> time in seconds\r\n    // _time => time difference in seconds \r\n    // REWORK \r\n    function patronageOwedRange(uint256 _time) public view returns (uint256 patronageDue) {\r\n        return (price.mul(_time).mul(patronageNumerator).div(365 days)).div(100);\r\n    }\r\n\r\n    // returns how much seconds are in a year \r\n    function seconds_year() public view returns (uint256 seconds_per_year) {\r\n        return 365 days;\r\n    }\r\n\r\n    // returns the current patronage\r\n    function getPatronage() public view returns (uint256 numerator){\r\n        return patronageNumerator;\r\n    }\r\n\r\n    // returns how much has been collected since last collection\r\n    function currentCollected() public view returns (uint256 patronageDue) {\r\n        if(timeLastCollected > timeAcquired) {\r\n            return patronageOwedRange(timeLastCollected.sub(timeAcquired));\r\n        } else { return 0; }\r\n    }\r\n\r\n    // returns wether or not the artwork is in in state before sale \r\n    function before_sale_state() public view returns (bool state) {\r\n        return before_first_sale;\r\n    }\r\n\r\n    // returns the patron (of the artwork)\r\n\r\n    function getPatronAdress() public view returns(address patron){\r\n        return art.ownerOf(tokenID);\r\n    }\r\n\r\n\r\n    // returns how much patronage would be owned at the given timestamp \r\n    function patronageOwedWithTimestamp() public view returns (uint256 patronageDue, uint256 timestamp) {\r\n        return (patronageOwed(), now);\r\n    }\r\n\r\n    /* \r\n    returns whether it is in foreclosed state or not\r\n    depending on whether deposit covers patronage due\r\n    useful helper function when price should be zero, but contract doesn't reflect it yet. \r\n    */\r\n    function foreclosed() public view returns (bool) {\r\n        uint256 collection = patronageOwed();\r\n        if(collection >= deposit) {\r\n            return true;\r\n        } else {\r\n            return false;\r\n        }\r\n    }\r\n\r\n    // same function as above, basically\r\n    function depositAbleToWithdraw() public view returns (uint256) {\r\n        uint256 collection = patronageOwed();\r\n        if(collection >= deposit) {\r\n            return 0;\r\n        } else {\r\n            return deposit.sub(collection);\r\n        }\r\n    }\r\n\r\n    /*\r\n    now + deposit/patronage per second \r\n    now + depositAbleToWithdraw/(price*nume/denom/365).\r\n    */\r\n    // REWORK\r\n    function foreclosureTime() public view returns (uint256) {\r\n        // patronage per second\r\n        uint256 pps = price.mul(patronageNumerator).div(365 days);\r\n        uint256 daw = depositAbleToWithdraw();\r\n        // Do we have patronage to withdraw?\r\n        if(daw > 0) {\r\n            return now + depositAbleToWithdraw().div(pps);\r\n        } else if (pps > 0) {\r\n            // it is still active, but in foreclosure state\r\n            // it is NOW or was in the past\r\n            uint256 collection = patronageOwed();\r\n            return timeLastCollected.add(((now.sub(timeLastCollected)).mul(deposit).div(collection)));\r\n        } else {\r\n            // not active and actively foreclosed (price is zero)\r\n            return timeLastCollected; // it has been foreclosed or in foreclosure.\r\n        }\r\n    }\r\n\r\n    /*! actions */\r\n    // determine patronage to pay\r\n    function _collectPatronage() public {\r\n        \r\n        // Only calculate patronage if the artwork has not been sold and the artist is the owner\r\n        if ((art.ownerOf(tokenID) != artist) && before_first_sale == false){\r\n        \r\n            if (price != 0) { // price > 0 == active owned state\r\n                uint256 collection = patronageOwed();\r\n                \r\n                if (collection >= deposit) { // foreclosure happened in the past\r\n\r\n                    // up to when was it actually paid for?\r\n                    // TLC + (time_elapsed)*deposit/collection\r\n                    timeLastCollected = timeLastCollected.add((now.sub(timeLastCollected)).mul(deposit).div(collection));\r\n                    collection = deposit; // take what's left.\r\n                } else { \r\n                    timeLastCollected = now; \r\n                } // normal collection\r\n\r\n                deposit = deposit.sub(collection);\r\n                totalCollected = totalCollected.add(collection);\r\n                artistFund = artistFund.add(collection);\r\n                emit LogCollection(collection);\r\n\r\n                _forecloseIfNecessary();\r\n            }\r\n        }\r\n    }\r\n\r\n\r\n    // Allows an actor to buy the artwork through pennyworth at a specified price\r\n    function buy(uint256 _newPrice, uint256 _currentPrice) public payable collectPatronage {\r\n        /* \r\n            this is protection against a front-run attack.\r\n            the person will only buy the artwork if it is what they agreed to.\r\n            thus: someone can't buy it from under them and change the price, eating into their deposit.\r\n        */\r\n\r\n        // front-running protection\r\n        require(price == _currentPrice, \"Current Price incorrect\");\r\n        // can't be bought for nothing\r\n        require(_newPrice > 0, \"Price is zero\");\r\n        // message needs to cover more than the sales price, rest will go towards deposit\r\n        require(msg.value > price, \"Not enough\"); // >, coz need to have at least something for deposit\r\n\r\n        address currentOwner = art.ownerOf(tokenID);\r\n\r\n        uint256 totalToPayBack = price.add(deposit);\r\n        if(totalToPayBack > 0) { // this won't execute if steward owns it. price = 0. deposit = 0.\r\n            // pay previous owner their price + deposit back.\r\n            address payable payableCurrentOwner = address(uint160(currentOwner));\r\n            bool transferSuccess = payableCurrentOwner.send(totalToPayBack);\r\n\r\n            // if the send fails, keep the funds separate for the owner\r\n            if(!transferSuccess) { pullFunds[currentOwner] = pullFunds[currentOwner].add(totalToPayBack); }\r\n        }\r\n\r\n        // artwork is being bought, thus it is not in the \"before_first_sale\" state.\r\n        before_first_sale = false;\r\n\r\n        // new purchase\r\n        timeLastCollected = now;\r\n        \r\n        // deposit is the value that is being sent via message - price\r\n        deposit = msg.value.sub(price);\r\n        // transfering artwork to the buyer\r\n        transferArtworkTo(currentOwner, msg.sender, _newPrice);\r\n        emit LogBuy(msg.sender, _newPrice);\r\n    }\r\n\r\n    /* !Only Patron Actions */\r\n    // deposit wei into the contract \r\n    function depositWei() public payable collectPatronage onlyPatron {\r\n        deposit = deposit.add(msg.value);\r\n    }\r\n\r\n    // change the price of the artwork\r\n    function changePrice(uint256 _newPrice) public collectPatronage onlyPatron {\r\n        require(_newPrice > 0, 'Price is zero'); \r\n        price = _newPrice;\r\n        emit LogPriceChange(price);\r\n    }\r\n    \r\n    // withdraw entire deposit, collect patronage first, only to be accessed by patron\r\n    function withdrawDeposit(uint256 _wei) public collectPatronage onlyPatron {\r\n        _withdrawDeposit(_wei);\r\n    }\r\n\r\n    // allows the patron to \"exit\" the artwork\r\n    function exit() public collectPatronage onlyPatron {\r\n        _withdrawDeposit(deposit);\r\n    }\r\n\r\n    /* !Actions that don't affect state of the artwork */\r\n    /* Artist Actions */\r\n    function withdrawArtistFunds() public {\r\n        require(msg.sender == artist, \"Not artist\");\r\n        uint256 toSend = artistFund;\r\n        artistFund = 0;\r\n        artist.transfer(toSend);\r\n    }\r\n\r\n    /* Withdrawing Stuck Deposits */\r\n    /* To reduce complexity, pull funds are entirely separate from current deposit */\r\n    function withdrawPullFunds() public {\r\n        require(pullFunds[msg.sender] > 0, \"No pull funds available.\");\r\n        uint256 toSend = pullFunds[msg.sender];\r\n        pullFunds[msg.sender] = 0;\r\n        msg.sender.transfer(toSend);\r\n    }\r\n\r\n    /* internal */\r\n    function _withdrawDeposit(uint256 _wei) internal {\r\n        // note: can withdraw whole deposit, which puts it in immediate to be foreclosed state.\r\n        require(deposit >= _wei, 'Withdrawing too much');\r\n\r\n        deposit = deposit.sub(_wei);\r\n        msg.sender.transfer(_wei); // msg.sender == patron\r\n\r\n        _forecloseIfNecessary();\r\n    }\r\n\r\n    // Checks if the Artwork has to be foreclosed -> deposit == 0\r\n    function _forecloseIfNecessary() internal {\r\n        // if the artwork has not been sold\r\n        if (before_first_sale == true){\r\n            address currentOwner = art.ownerOf(tokenID);\r\n            transferArtworkTo(currentOwner, artist, 0);\r\n            emit LogForeclosure(currentOwner);\r\n        }\r\n\r\n        else if(deposit == 0) {\r\n            // become steward of artwork (aka foreclose)\r\n            address currentOwner = art.ownerOf(tokenID);\r\n            transferArtworkTo(currentOwner, address(this), 0);\r\n            emit LogForeclosure(currentOwner);\r\n        }\r\n    }\r\n\r\n    // transfers the artwork from the current owner to the new owner \r\n    function transferArtworkTo(address _currentOwner, address _newOwner, uint256 _newPrice) internal {        \r\n        art.transferFrom(_currentOwner, _newOwner, tokenID);\r\n\r\n        price = _newPrice;\r\n        timeAcquired = now;\r\n    }\r\n\r\n}\r\n",
  "sourcePath": "C:\\Users\\Jonathan\\Desktop\\Kurse_HDM_7_Semester\\Blockchain Lab\\BlockchainLab\\Web\\contracts\\Pennyworth.sol",
  "compiler": {
    "name": "solc",
    "version": "0.6.12+commit.27d51765.Emscripten.clang"
  },
  "schemaVersion": "3.4.4",
  "updatedAt": "2021-12-29T10:41:04.857Z",
  "devdoc": {
    "kind": "dev",
    "methods": {},
    "version": 1
  },
  "userdoc": {
    "kind": "user",
    "methods": {},
    "version": 1
  }
}